{
  "address": "0xD8a5a9b31c3C0232E196d518E89Fd8bF83AcAd43",
  "abi": [
    {
      "inputs": [
        {
          "internalType": "contract INonfungiblePositionManager",
          "name": "positionManager_",
          "type": "address"
        },
        {
          "internalType": "contract IPokeMe",
          "name": "pokeMe_",
          "type": "address"
        },
        {
          "internalType": "contract IWETH9",
          "name": "WETH9_",
          "type": "address"
        }
      ],
      "stateMutability": "nonpayable",
      "type": "constructor"
    },
    {
      "anonymous": false,
      "inputs": [
        {
          "indexed": true,
          "internalType": "uint256",
          "name": "tokenId",
          "type": "uint256"
        }
      ],
      "name": "Cancel",
      "type": "event"
    },
    {
      "anonymous": false,
      "inputs": [
        {
          "indexed": true,
          "internalType": "uint256",
          "name": "tokenId",
          "type": "uint256"
        },
        {
          "indexed": false,
          "internalType": "uint256",
          "name": "amount0Out",
          "type": "uint256"
        },
        {
          "indexed": false,
          "internalType": "uint256",
          "name": "amount1Out",
          "type": "uint256"
        },
        {
          "indexed": false,
          "internalType": "uint256",
          "name": "feeAmount",
          "type": "uint256"
        }
      ],
      "name": "Eject",
      "type": "event"
    },
    {
      "anonymous": false,
      "inputs": [
        {
          "indexed": false,
          "internalType": "uint256",
          "name": "tokenId",
          "type": "uint256"
        },
        {
          "indexed": false,
          "internalType": "address",
          "name": "buyer",
          "type": "address"
        }
      ],
      "name": "LogOptionBuy",
      "type": "event"
    },
    {
      "anonymous": false,
      "inputs": [
        {
          "indexed": false,
          "internalType": "uint256",
          "name": "tokenId",
          "type": "uint256"
        },
        {
          "components": [
            {
              "internalType": "contract IUniswapV3Pool",
              "name": "pool",
              "type": "address"
            },
            {
              "internalType": "enum OptionType",
              "name": "optionType",
              "type": "uint8"
            },
            {
              "internalType": "int24",
              "name": "strike",
              "type": "int24"
            },
            {
              "internalType": "uint256",
              "name": "notional",
              "type": "uint256"
            },
            {
              "internalType": "uint256",
              "name": "maturity",
              "type": "uint256"
            },
            {
              "internalType": "address",
              "name": "maker",
              "type": "address"
            },
            {
              "internalType": "address",
              "name": "resolver",
              "type": "address"
            },
            {
              "internalType": "uint256",
              "name": "price",
              "type": "uint256"
            }
          ],
          "indexed": true,
          "internalType": "struct OptionData",
          "name": "option",
          "type": "tuple"
        },
        {
          "indexed": false,
          "internalType": "address",
          "name": "sender",
          "type": "address"
        }
      ],
      "name": "LogOptionCreation",
      "type": "event"
    },
    {
      "inputs": [
        {
          "internalType": "uint256",
          "name": "tokenId_",
          "type": "uint256"
        },
        {
          "components": [
            {
              "internalType": "contract IUniswapV3Pool",
              "name": "pool",
              "type": "address"
            },
            {
              "internalType": "enum OptionType",
              "name": "optionType",
              "type": "uint8"
            },
            {
              "internalType": "int24",
              "name": "strike",
              "type": "int24"
            },
            {
              "internalType": "uint256",
              "name": "notional",
              "type": "uint256"
            },
            {
              "internalType": "uint256",
              "name": "maturity",
              "type": "uint256"
            },
            {
              "internalType": "address",
              "name": "maker",
              "type": "address"
            },
            {
              "internalType": "address",
              "name": "resolver",
              "type": "address"
            },
            {
              "internalType": "uint256",
              "name": "price",
              "type": "uint256"
            }
          ],
          "internalType": "struct OptionData",
          "name": "optionData_",
          "type": "tuple"
        }
      ],
      "name": "buyOption",
      "outputs": [],
      "stateMutability": "payable",
      "type": "function"
    },
    {
      "inputs": [
        {
          "internalType": "bytes32",
          "name": "",
          "type": "bytes32"
        }
      ],
      "name": "buyers",
      "outputs": [
        {
          "internalType": "address",
          "name": "",
          "type": "address"
        }
      ],
      "stateMutability": "view",
      "type": "function"
    },
    {
      "inputs": [
        {
          "internalType": "uint256",
          "name": "tokenId_",
          "type": "uint256"
        },
        {
          "components": [
            {
              "internalType": "contract IUniswapV3Pool",
              "name": "pool",
              "type": "address"
            },
            {
              "internalType": "enum OptionType",
              "name": "optionType",
              "type": "uint8"
            },
            {
              "internalType": "int24",
              "name": "strike",
              "type": "int24"
            },
            {
              "internalType": "uint256",
              "name": "notional",
              "type": "uint256"
            },
            {
              "internalType": "uint256",
              "name": "maturity",
              "type": "uint256"
            },
            {
              "internalType": "address",
              "name": "maker",
              "type": "address"
            },
            {
              "internalType": "address",
              "name": "resolver",
              "type": "address"
            },
            {
              "internalType": "uint256",
              "name": "price",
              "type": "uint256"
            }
          ],
          "internalType": "struct OptionData",
          "name": "optionData_",
          "type": "tuple"
        }
      ],
      "name": "canSettle",
      "outputs": [
        {
          "internalType": "bool",
          "name": "",
          "type": "bool"
        }
      ],
      "stateMutability": "view",
      "type": "function"
    },
    {
      "inputs": [
        {
          "internalType": "uint256",
          "name": "tokenId_",
          "type": "uint256"
        },
        {
          "components": [
            {
              "internalType": "contract IUniswapV3Pool",
              "name": "pool",
              "type": "address"
            },
            {
              "internalType": "enum OptionType",
              "name": "optionType",
              "type": "uint8"
            },
            {
              "internalType": "int24",
              "name": "strike",
              "type": "int24"
            },
            {
              "internalType": "uint256",
              "name": "notional",
              "type": "uint256"
            },
            {
              "internalType": "uint256",
              "name": "maturity",
              "type": "uint256"
            },
            {
              "internalType": "address",
              "name": "maker",
              "type": "address"
            },
            {
              "internalType": "address",
              "name": "resolver",
              "type": "address"
            },
            {
              "internalType": "uint256",
              "name": "price",
              "type": "uint256"
            }
          ],
          "internalType": "struct OptionData",
          "name": "optionData_",
          "type": "tuple"
        }
      ],
      "name": "cancelOption",
      "outputs": [],
      "stateMutability": "nonpayable",
      "type": "function"
    },
    {
      "inputs": [
        {
          "components": [
            {
              "internalType": "contract IUniswapV3Pool",
              "name": "pool",
              "type": "address"
            },
            {
              "internalType": "enum OptionType",
              "name": "optionType",
              "type": "uint8"
            },
            {
              "internalType": "int24",
              "name": "strike",
              "type": "int24"
            },
            {
              "internalType": "uint256",
              "name": "notional",
              "type": "uint256"
            },
            {
              "internalType": "uint256",
              "name": "maturity",
              "type": "uint256"
            },
            {
              "internalType": "address",
              "name": "maker",
              "type": "address"
            },
            {
              "internalType": "address",
              "name": "resolver",
              "type": "address"
            },
            {
              "internalType": "uint256",
              "name": "price",
              "type": "uint256"
            }
          ],
          "internalType": "struct OptionData",
          "name": "optionData_",
          "type": "tuple"
        }
      ],
      "name": "createOption",
      "outputs": [],
      "stateMutability": "payable",
      "type": "function"
    },
    {
      "inputs": [
        {
          "internalType": "uint256",
          "name": "",
          "type": "uint256"
        }
      ],
      "name": "hashById",
      "outputs": [
        {
          "internalType": "bytes32",
          "name": "",
          "type": "bytes32"
        }
      ],
      "stateMutability": "view",
      "type": "function"
    },
    {
      "inputs": [
        {
          "internalType": "uint256",
          "name": "tokenId_",
          "type": "uint256"
        },
        {
          "components": [
            {
              "internalType": "contract IUniswapV3Pool",
              "name": "pool",
              "type": "address"
            },
            {
              "internalType": "enum OptionType",
              "name": "optionType",
              "type": "uint8"
            },
            {
              "internalType": "int24",
              "name": "strike",
              "type": "int24"
            },
            {
              "internalType": "uint256",
              "name": "notional",
              "type": "uint256"
            },
            {
              "internalType": "uint256",
              "name": "maturity",
              "type": "uint256"
            },
            {
              "internalType": "address",
              "name": "maker",
              "type": "address"
            },
            {
              "internalType": "address",
              "name": "resolver",
              "type": "address"
            },
            {
              "internalType": "uint256",
              "name": "price",
              "type": "uint256"
            }
          ],
          "internalType": "struct OptionData",
          "name": "optionData_",
          "type": "tuple"
        }
      ],
      "name": "settleOption",
      "outputs": [],
      "stateMutability": "nonpayable",
      "type": "function"
    },
    {
      "inputs": [
        {
          "internalType": "uint256",
          "name": "",
          "type": "uint256"
        }
      ],
      "name": "taskById",
      "outputs": [
        {
          "internalType": "bytes32",
          "name": "",
          "type": "bytes32"
        }
      ],
      "stateMutability": "view",
      "type": "function"
    }
  ],
  "transactionHash": "0x1731fc549ddcf2106a96cb0dfccc68cf64f74c953efff41cd9f2172037dd855b",
  "args": [
    "0xC36442b4a4522E871399CD717aBDD847Ab11FE88",
    "0xB3f5503f93d5Ef84b06993a1975B9D21B962892F",
    "0xC02aaA39b223FE8D0A0e5C4F27eAD9083C756Cc2"
  ],
  "solcInputHash": "7f8a05b6f3157461eabbb64be923ce0a",
  "bytecode": "0x60806040523480156200001157600080fd5b506040516200297938038062002979833981016040819052620000349162000077565b600080546001600160a01b039485166001600160a01b031991821617909155600180549385169382169390931790925560028054919093169116179055620000e4565b6000806000606084860312156200008d57600080fd5b83516200009a81620000cb565b6020850151909350620000ad81620000cb565b6040850151909250620000c081620000cb565b809150509250925092565b6001600160a01b0381168114620000e157600080fd5b50565b61288580620000f46000396000f3fe60806040526004361061007b5760003560e01c8063d0e681881161004e578063d0e6818814610143578063da5e9c4314610170578063e497f4d614610183578063ee2d9a0b146101b357600080fd5b80631c241d8f146100805780633f392cac146100c05780637ecbaf80146100d5578063bc20ec2214610123575b600080fd5b34801561008c57600080fd5b506100ad61009b36600461206a565b60036020526000908152604090205481565b6040519081526020015b60405180910390f35b6100d36100ce3660046121bc565b6101d3565b005b3480156100e157600080fd5b5061010b6100f036600461206a565b6005602052600090815260409020546001600160a01b031681565b6040516001600160a01b0390911681526020016100b7565b34801561012f57600080fd5b506100d361013e3660046121bc565b61066f565b34801561014f57600080fd5b506100ad61015e36600461206a565b60046020526000908152604090205481565b6100d361017e3660046120f1565b610a8e565b34801561018f57600080fd5b506101a361019e3660046121bc565b611108565b60405190151581526020016100b7565b3480156101bf57600080fd5b506100d36101ce3660046121bc565b6114db565b6000546040516331a9108f60e11b8152600481018490526001600160a01b0390911690636352211e9060240160206040518083038186803b15801561021757600080fd5b505afa15801561022b573d6000803e3d6000fd5b505050506040513d601f19601f8201168201806040525081019061024f9190612032565b6001600160a01b0316306001600160a01b0316146102b45760405162461bcd60e51b815260206004820181905260248201527f4f7074696f6e3a3a63616e63656c4f7074696f6e3a206f6e6c79206f776e657260448201526064015b60405180910390fd5b6000816040516020016102c7919061271d565b60408051601f19818403018152918152815160209283012060008681526003909352912054909150811461030d5760405162461bcd60e51b81526004016102ab906125cc565b6000818152600560205260409020546001600160a01b0316156103425760405162461bcd60e51b81526004016102ab9061260e565b428260800135116103a15760405162461bcd60e51b8152602060048201526024808201527f4f7074696f6e3a3a63616e63656c4f7074696f6e3a206f7074696f6e206578706044820152631a5c995960e21b60648201526084016102ab565b600081815260056020526040812080546001600160a01b03191633179055806103d0604085016020860161209c565b60018111156103e1576103e1612812565b14610468576103f36020840184612015565b6001600160a01b0316630dfe16816040518163ffffffff1660e01b815260040160206040518083038186803b15801561042b57600080fd5b505afa15801561043f573d6000803e3d6000fd5b505050506040513d601f19601f820116820180604052508101906104639190612032565b6104e5565b6104756020840184612015565b6001600160a01b031663d21220a76040518163ffffffff1660e01b815260040160206040518083038186803b1580156104ad57600080fd5b505afa1580156104c1573d6000803e3d6000fd5b505050506040513d601f19601f820116820180604052508101906104e59190612032565b905034156105f0578260e0013534146105555760405162461bcd60e51b815260206004820152602c60248201527f52616e67654f726465723a73657452616e67654f726465723a3a20496e76616c60448201526b34b210383934b1b29034b71760a11b60648201526084016102ab565b6002546001600160a01b038281169116146105825760405162461bcd60e51b81526004016102ab90612565565b600260009054906101000a90046001600160a01b03166001600160a01b031663d0e30db0346040518263ffffffff1660e01b81526004016000604051808303818588803b1580156105d257600080fd5b505af11580156105e6573d6000803e3d6000fd5b5050505050610609565b6106096001600160a01b038216333060e087013561182e565b61063161061c60c0850160a08601612015565b6001600160a01b0383169060e086013561189f565b604080518581523360208201527f024bd09e917361927ee1a208adaa55f99c6c21acca5e56d26ea74f58c4a54aed910160405180910390a150505050565b6001546001600160a01b031633146106c95760405162461bcd60e51b815260206004820181905260248201527f456a6563744c503a3a6f6e6c79506f6b654d653a206f6e6c7920706f6b654d6560448201526064016102ab565b6106d38282611108565b506000816040516020016106e7919061271d565b60408051601f1981840301815291905280516020909101209050600080610714604085016020860161209c565b600181111561072557610725612812565b14905060006107376020850185612015565b6001600160a01b0316633850c7bd6040518163ffffffff1660e01b815260040160e06040518083038186803b15801561076f57600080fd5b505afa158015610783573d6000803e3d6000fd5b505050506040513d601f19601f820116820180604052508101906107a7919061210e565b505050505091505060008460000160208101906107c49190612015565b6001600160a01b031663d0c93a7c6040518163ffffffff1660e01b815260040160206040518083038186803b1580156107fc57600080fd5b505afa158015610810573d6000803e3d6000fd5b505050506040513d601f19601f8201168201806040525081019061083491906120d4565b6000805460405163133f757160e31b8152600481018a90529293509091829182916001600160a01b03909116906399fbab88906024016101806040518083038186803b15801561088357600080fd5b505afa158015610897573d6000803e3d6000fd5b505050506040513d601f19601f820116820180604052508101906108bb919061224a565b50505050975050505094509450505060006005600089815260200190815260200160002060009054906101000a90046001600160a01b03169050600360008b815260200190815260200160002060009055600460008b8152602001908152602001600020600090556005600089815260200190815260200160002060006101000a8154906001600160a01b03021916905560008761097c578561096460608c0160408d016120b7565b61096e9190612788565b60020b8760020b13156109a1565b8561098d60608c0160408d016120b7565b6109979190612741565b60020b8760020b12155b90506000806109b08d866118d4565b909250905081156109eb576109eb836109d8576109d360c08e0160a08f01612015565b6109da565b845b6001600160a01b038916908461189f565b8015610a2157610a2183610a0e57610a0960c08e0160a08f01612015565b610a10565b845b6001600160a01b038816908361189f565b600054604051630852cd8d60e31b8152600481018f90526001600160a01b03909116906342966c6890602401600060405180830381600087803b158015610a6757600080fd5b505af1158015610a7b573d6000803e3d6000fd5b5050505050505050505050505050505050565b6000610a9d6020830183612015565b6001600160a01b0316633850c7bd6040518163ffffffff1660e01b815260040160e06040518083038186803b158015610ad557600080fd5b505afa158015610ae9573d6000803e3d6000fd5b505050506040513d601f19601f82011682018060405250810190610b0d919061210e565b50505050509150506000806001811115610b2957610b29612812565b610b39604085016020860161209c565b6001811115610b4a57610b4a612812565b1490506000610b5c6020850185612015565b6001600160a01b031663d0c93a7c6040518163ffffffff1660e01b815260040160206040518083038186803b158015610b9457600080fd5b505afa158015610ba8573d6000803e3d6000fd5b505050506040513d601f19601f82011682018060405250810190610bcc91906120d4565b9050600082610bf55781610be660608701604088016120b7565b610bf09190612788565b610c05565b610c0560608601604087016120b7565b9050600083610c2357610c1e60608701604088016120b7565b610c3e565b82610c3460608801604089016120b7565b610c3e9190612741565b90508160020b8560020b1280610c5957508060020b8560020b135b610c9b5760405162461bcd60e51b8152602060048201526013602482015272656a656374207469636b20696e2072616e676560681b60448201526064016102ab565b6000610caa6020880188612015565b6001600160a01b0316630dfe16816040518163ffffffff1660e01b815260040160206040518083038186803b158015610ce257600080fd5b505afa158015610cf6573d6000803e3d6000fd5b505050506040513d601f19601f82011682018060405250810190610d1a9190612032565b90506000610d2b6020890189612015565b6001600160a01b031663d21220a76040518163ffffffff1660e01b815260040160206040518083038186803b158015610d6357600080fd5b505afa158015610d77573d6000803e3d6000fd5b505050506040513d601f19601f82011682018060405250810190610d9b9190612032565b9050600086610daa5781610dac565b825b90503415610eba5788606001353414610e1f5760405162461bcd60e51b815260206004820152602f60248201527f52616e67654f726465723a73657452616e67654f726465723a3a20496e76616c60448201526e34b2103737ba34b7b730b61034b71760891b60648201526084016102ab565b6002546001600160a01b03828116911614610e4c5760405162461bcd60e51b81526004016102ab90612565565b600260009054906101000a90046001600160a01b03166001600160a01b031663d0e30db0346040518263ffffffff1660e01b81526004016000604051808303818588803b158015610e9c57600080fd5b505af1158015610eb0573d6000803e3d6000fd5b5050505050610ed3565b610ed36001600160a01b038216333060608d013561182e565b600054610ef1906001600160a01b03838116911660608c0135611a72565b6000805460408051610160810182526001600160a01b038781168252868116602080840191909152931692638831645692820190610f31908f018f612015565b6001600160a01b031663ddca3f436040518163ffffffff1660e01b815260040160206040518083038186803b158015610f6957600080fd5b505afa158015610f7d573d6000803e3d6000fd5b505050506040513d601f19601f82011682018060405250810190610fa191906121a1565b62ffffff1681526020018960020b81526020018860020b81526020018b610fc9576000610fcf565b8d606001355b81526020018b610fe3578d60600135610fe6565b60005b81526020018b610ff7576000610ffd565b8d606001355b81526020018b611011578d60600135611014565b60005b815230602082015242604091820152516001600160e01b031960e084901b1681526110429190600401612659565b608060405180830381600087803b15801561105c57600080fd5b505af1158015611070573d6000803e3d6000fd5b505050506040513d601f19601f8201168201806040525081019061109491906121ea565b50505090506110af818b8a6110a95786611b96565b85611b96565b896040516110bd9190612430565b60408051918290038220838352336020840152917f1eb31e1699bfc26db7a1ab44607eb51f577cfe4c5ea2c3db4ab05b7dc873cfaa910160405180910390a250505050505050505050565b6040805180820182526008815267027bbb732b9101d160c51b60208201526000805492516331a9108f60e11b81526004810186905290926111c292916001600160a01b0390911690636352211e9060240160206040518083038186803b15801561117157600080fd5b505afa158015611185573d6000803e3d6000fd5b505050506040513d601f19601f820116820180604052508101906111a99190612032565b6001600160a01b0316306001600160a01b031614611cc5565b6000546040516331a9108f60e11b8152600481018590526001600160a01b0390911690636352211e9060240160206040518083038186803b15801561120657600080fd5b505afa15801561121a573d6000803e3d6000fd5b505050506040513d601f19601f8201168201806040525081019061123e9190612032565b6001600160a01b0316306001600160a01b03161461129e5760405162461bcd60e51b815260206004820181905260248201527f4f7074696f6e3a3a736574746c654f7074696f6e3a206f6e6c79206f776e657260448201526064016102ab565b6000826040516020016112b1919061271d565b60408051601f1981840301815282825280516020918201208383018352600784526602430b9b4101d160cd1b8483015260008881526003909252919020549092506112fe91908314611cc5565b60008481526003602052604090205481146113665760405162461bcd60e51b815260206004820152602260248201527f4f7074696f6e3a3a736574746c654f7074696f6e3a20696e76616c69642068616044820152610e6d60f31b60648201526084016102ab565b604080518082018252601081526f027b83a34b7b7102137bab3b43a101d160851b6020808301919091526000848152600590915291909120546113b491906001600160a01b03161515611cc5565b6000818152600560205260409020546001600160a01b031661142c5760405162461bcd60e51b815260206004820152602b60248201527f4f7074696f6e3a3a736574746c654f7074696f6e3a206f7074696f6e206e6f7460448201526a081e595d08189bdd59da1d60aa1b60648201526084016102ab565b61146660405180604001604052806011815260200170027b83a34b7b71036b0ba3ab932b2101d1607d1b8152504285608001351115611cc5565b42836080013511156114cf5760405162461bcd60e51b815260206004820152602c60248201527f4f7074696f6e3a3a736574746c654f7074696f6e3a206f7074696f6e206e6f7460448201526b081b585d1d5c9959081e595d60a21b60648201526084016102ab565b60019150505b92915050565b6000546040516331a9108f60e11b8152600481018490526001600160a01b0390911690636352211e9060240160206040518083038186803b15801561151f57600080fd5b505afa158015611533573d6000803e3d6000fd5b505050506040513d601f19601f820116820180604052508101906115579190612032565b6001600160a01b0316336001600160a01b0316146115b75760405162461bcd60e51b815260206004820181905260248201527f4f7074696f6e3a3a63616e63656c4f7074696f6e3a206f6e6c79206f776e657260448201526064016102ab565b6000816040516020016115ca919061271d565b60408051601f1981840301815291815281516020928301206000868152600390935291205490915081146116105760405162461bcd60e51b81526004016102ab906125cc565b6000818152600560205260409020546001600160a01b0316156116455760405162461bcd60e51b81526004016102ab9061260e565b6000805460405163133f757160e31b815260048101869052829182916001600160a01b03909116906399fbab88906024016101806040518083038186803b15801561168f57600080fd5b505afa1580156116a3573d6000803e3d6000fd5b505050506040513d601f19601f820116820180604052508101906116c7919061224a565b505050509750505050945094505050600160009054906101000a90046001600160a01b03166001600160a01b031663ee8ca3b560046000898152602001908152602001600020546040518263ffffffff1660e01b815260040161172c91815260200190565b600060405180830381600087803b15801561174657600080fd5b505af115801561175a573d6000803e3d6000fd5b5050506000878152600360209081526040808320839055600482528083208390558783526005909152812080546001600160a01b03191690559050806117a088846118d4565b909250905081156117cf576117cf6117be60c0890160a08a01612015565b6001600160a01b038716908461189f565b80156117f9576117f96117e860c0890160a08a01612015565b6001600160a01b038616908361189f565b60405188907f8bf30e7ff26833413be5f69e1d373744864d600b664204b4a2f9844a8eedb9ed90600090a25050505050505050565b6040516001600160a01b03808516602483015283166044820152606481018290526118999085906323b872dd60e01b906084015b60408051601f198184030181529190526020810180516001600160e01b03166001600160e01b031990931692909217909152611d0e565b50505050565b6040516001600160a01b0383166024820152604481018290526118cf90849063a9059cbb60e01b90606401611862565b505050565b600080546040805160a0810182528581526001600160801b03858116602083019081528284018681526060840187815242608086019081529551630624e65f60e11b81529451600486015291519092166024840152905160448301525160648201529051608482015282916001600160a01b031690630c49ccbe9060a4016040805180830381600087803b15801561196b57600080fd5b505af115801561197f573d6000803e3d6000fd5b505050506040513d601f19601f820116820180604052508101906119a39190612226565b50506000546040805160808101825286815230602082019081526001600160801b0382840181815260608401828152945163fc6f786560e01b81529351600485015291516001600160a01b0390811660248501529151811660448401529251909216606482015291169063fc6f7865906084016040805180830381600087803b158015611a2f57600080fd5b505af1158015611a43573d6000803e3d6000fd5b505050506040513d601f19601f82011682018060405250810190611a679190612226565b909590945092505050565b801580611afb5750604051636eb1769f60e11b81523060048201526001600160a01b03838116602483015284169063dd62ed3e9060440160206040518083038186803b158015611ac157600080fd5b505afa158015611ad5573d6000803e3d6000fd5b505050506040513d601f19601f82011682018060405250810190611af99190612083565b155b611b665760405162461bcd60e51b815260206004820152603660248201527f5361666545524332303a20617070726f76652066726f6d206e6f6e2d7a65726f60448201527520746f206e6f6e2d7a65726f20616c6c6f77616e636560501b60648201526084016102ab565b6040516001600160a01b0383166024820152604481018290526118cf90849063095ea7b360e01b90606401611862565b81604051602001611ba7919061271d565b60408051601f198184030181529181528151602092830120600086815260039093529120556001546001600160a01b031663b9f45adb30635e10761160e11b611bf660e0870160c08801612015565b604051630ad6ff4160e21b90611c12908a908a9060240161272c565b60408051601f198184030181529181526020820180516001600160e01b03166001600160e01b03199485161790525160e087901b9092168252611c5c9493929188906004016124db565b602060405180830381600087803b158015611c7657600080fd5b505af1158015611c8a573d6000803e3d6000fd5b505050506040513d601f19601f82011682018060405250810190611cae9190612083565b600093845260046020526040909320929092555050565b611d0a8282604051602401611cdb929190612541565b60408051601f198184030181529190526020810180516001600160e01b031663c3b5563560e01b179052611de0565b5050565b6000611d63826040518060400160405280602081526020017f5361666545524332303a206c6f772d6c6576656c2063616c6c206661696c6564815250856001600160a01b0316611e019092919063ffffffff16565b8051909150156118cf5780806020019051810190611d81919061204f565b6118cf5760405162461bcd60e51b815260206004820152602a60248201527f5361666545524332303a204552433230206f7065726174696f6e20646964206e6044820152691bdd081cdd58d8d9595960b21b60648201526084016102ab565b80516a636f6e736f6c652e6c6f67602083016000808483855afa5050505050565b6060611e108484600085611e1a565b90505b9392505050565b606082471015611e7b5760405162461bcd60e51b815260206004820152602660248201527f416464726573733a20696e73756666696369656e742062616c616e636520666f6044820152651c8818d85b1b60d21b60648201526084016102ab565b843b611ec95760405162461bcd60e51b815260206004820152601d60248201527f416464726573733a2063616c6c20746f206e6f6e2d636f6e747261637400000060448201526064016102ab565b600080866001600160a01b03168587604051611ee59190612414565b60006040518083038185875af1925050503d8060008114611f22576040519150601f19603f3d011682016040523d82523d6000602084013e611f27565b606091505b5091509150611f37828286611f42565b979650505050505050565b60608315611f51575081611e13565b825115611f615782518084602001fd5b8160405162461bcd60e51b81526004016102ab919061252e565b8035611f8681612828565b919050565b8051611f8681612828565b80518015158114611f8657600080fd5b803560028110611f8657600080fd5b8051611f8681612840565b60006101008284031215611fd357600080fd5b50919050565b80516001600160801b0381168114611f8657600080fd5b805161ffff81168114611f8657600080fd5b805162ffffff81168114611f8657600080fd5b60006020828403121561202757600080fd5b8135611e1381612828565b60006020828403121561204457600080fd5b8151611e1381612828565b60006020828403121561206157600080fd5b611e1382611f96565b60006020828403121561207c57600080fd5b5035919050565b60006020828403121561209557600080fd5b5051919050565b6000602082840312156120ae57600080fd5b611e1382611fa6565b6000602082840312156120c957600080fd5b8135611e1381612840565b6000602082840312156120e657600080fd5b8151611e1381612840565b6000610100828403121561210457600080fd5b611e138383611fc0565b600080600080600080600060e0888a03121561212957600080fd5b875161213481612828565b602089015190975061214581612840565b955061215360408901611ff0565b945061216160608901611ff0565b935061216f60808901611ff0565b925060a088015160ff8116811461218557600080fd5b915061219360c08901611f96565b905092959891949750929550565b6000602082840312156121b357600080fd5b611e1382612002565b60008061012083850312156121d057600080fd5b823591506121e18460208501611fc0565b90509250929050565b6000806000806080858703121561220057600080fd5b8451935061221060208601611fd9565b6040860151606090960151949790965092505050565b6000806040838503121561223957600080fd5b505080516020909101519092909150565b6000806000806000806000806000806000806101808d8f03121561226d57600080fd5b8c516bffffffffffffffffffffffff8116811461228957600080fd5b9b5061229760208e01611f8b565b9a506122a560408e01611f8b565b99506122b360608e01611f8b565b98506122c160808e01612002565b97506122cf60a08e01611fb5565b96506122dd60c08e01611fb5565b95506122eb60e08e01611fd9565b94506101008d015193506101208d0151925061230a6101408e01611fd9565b91506123196101608e01611fd9565b90509295989b509295989b509295989b565b600081518084526123438160208601602086016127d0565b601f01601f19169290920160200192915050565b6002811061237557634e487b7160e01b600052602160045260246000fd5b9052565b803561238481612828565b6001600160a01b03818116845261239d60208401611fa6565b91506123ac6020850183612357565b604083013591506123bc82612840565b8160020b6040850152606083013560608501526080830135608085015260a083013591506123e982612828565b1660a08301526123fb60c08201611f7b565b6001600160a01b031660c083015260e090810135910152565b600082516124268184602087016127d0565b9190910192915050565b6000823561243d81612828565b6001600160a01b0316825261246160208084019061245c908601611fa6565b612357565b604083013561246f81612840565b8060020b60408401525060608301356060830152608083013560808301526124d06124c36124b760a085016124a660a08801611f7b565b6001600160a01b0316815260200190565b6124a660c08701611f7b565b60e0850135815260200190565b505061010001919050565b6001600160a01b0386811682526001600160e01b031986166020830152848116604083015260a060608301819052600091906125199084018661232b565b91508084166080840152509695505050505050565b602081526000611e13602083018461232b565b604081526000612554604083018561232b565b905082151560208301529392505050565b60208082526041908201527f52616e67654f726465723a73657452616e67654f726465723a3a20455448207260408201527f616e6765206f726465722073686f756c6420757365205745544820746f6b656e6060820152601760f91b608082015260a00190565b60208082526022908201527f4f7074696f6e3a3a63616e63656c4f7074696f6e3a20696e76616c69642068616040820152610e6d60f31b606082015260800190565b6020808252602b908201527f4f7074696f6e3a3a63616e63656c4f7074696f6e3a206f7074696f6e20616c7260408201526a1958591e48189bdd59da1d60aa1b606082015260800190565b81516001600160a01b031681526101608101602083015161268560208401826001600160a01b03169052565b50604083015161269c604084018262ffffff169052565b5060608301516126b1606084018260020b9052565b5060808301516126c6608084018260020b9052565b5060a083015160a083015260c083015160c083015260e083015160e08301526101008084015181840152506101208084015161270c828501826001600160a01b03169052565b505061014092830151919092015290565b61010081016114d58284612379565b8281526101208101611e136020830184612379565b60008160020b8360020b6000821282627fffff03821381151615612767576127676127fc565b82627fffff1903821281161561277f5761277f6127fc565b50019392505050565b60008160020b8360020b6000811281627fffff19018312811516156127af576127af6127fc565b81627fffff0183138116156127c6576127c66127fc565b5090039392505050565b60005b838110156127eb5781810151838201526020016127d3565b838111156118995750506000910152565b634e487b7160e01b600052601160045260246000fd5b634e487b7160e01b600052602160045260246000fd5b6001600160a01b038116811461283d57600080fd5b50565b8060020b811461283d57600080fdfea264697066735822122032188ac071120765db9d699f886e5978ca592a77f9874084c54f2dd89fd45ab064736f6c63430008070033",
  "devdoc": {
    "kind": "dev",
    "methods": {},
    "version": 1
  },
  "userdoc": {
    "kind": "user",
    "methods": {},
    "version": 1
  },
  "storageLayout": {
    "storage": [
      {
        "astId": 1260,
        "contract": "contracts/Option.sol:Option",
        "label": "_positionManager",
        "offset": 0,
        "slot": "0",
        "type": "t_contract(INonfungiblePositionManager)2515"
      },
      {
        "astId": 1263,
        "contract": "contracts/Option.sol:Option",
        "label": "_pokeMe",
        "offset": 0,
        "slot": "1",
        "type": "t_contract(IPokeMe)2636"
      },
      {
        "astId": 1266,
        "contract": "contracts/Option.sol:Option",
        "label": "_WETH9",
        "offset": 0,
        "slot": "2",
        "type": "t_contract(IWETH9)2760"
      },
      {
        "astId": 1270,
        "contract": "contracts/Option.sol:Option",
        "label": "hashById",
        "offset": 0,
        "slot": "3",
        "type": "t_mapping(t_uint256,t_bytes32)"
      },
      {
        "astId": 1274,
        "contract": "contracts/Option.sol:Option",
        "label": "taskById",
        "offset": 0,
        "slot": "4",
        "type": "t_mapping(t_uint256,t_bytes32)"
      },
      {
        "astId": 1278,
        "contract": "contracts/Option.sol:Option",
        "label": "buyers",
        "offset": 0,
        "slot": "5",
        "type": "t_mapping(t_bytes32,t_address)"
      }
    ],
    "types": {
      "t_address": {
        "encoding": "inplace",
        "label": "address",
        "numberOfBytes": "20"
      },
      "t_bytes32": {
        "encoding": "inplace",
        "label": "bytes32",
        "numberOfBytes": "32"
      },
      "t_contract(INonfungiblePositionManager)2515": {
        "encoding": "inplace",
        "label": "contract INonfungiblePositionManager",
        "numberOfBytes": "20"
      },
      "t_contract(IPokeMe)2636": {
        "encoding": "inplace",
        "label": "contract IPokeMe",
        "numberOfBytes": "20"
      },
      "t_contract(IWETH9)2760": {
        "encoding": "inplace",
        "label": "contract IWETH9",
        "numberOfBytes": "20"
      },
      "t_mapping(t_bytes32,t_address)": {
        "encoding": "mapping",
        "key": "t_bytes32",
        "label": "mapping(bytes32 => address)",
        "numberOfBytes": "32",
        "value": "t_address"
      },
      "t_mapping(t_uint256,t_bytes32)": {
        "encoding": "mapping",
        "key": "t_uint256",
        "label": "mapping(uint256 => bytes32)",
        "numberOfBytes": "32",
        "value": "t_bytes32"
      },
      "t_uint256": {
        "encoding": "inplace",
        "label": "uint256",
        "numberOfBytes": "32"
      }
    }
  }
}