{
  "address": "0xB69F3a95E759B31acbadCac008CB95c71D8150D8",
  "abi": [
    {
      "inputs": [
        {
          "internalType": "address",
          "name": "gelato_",
          "type": "address"
        },
        {
          "internalType": "contract INonfungiblePositionManager",
          "name": "positionManager_",
          "type": "address"
        },
        {
          "internalType": "contract IPokeMe",
          "name": "pokeMe_",
          "type": "address"
        },
        {
          "internalType": "contract IWETH9",
          "name": "WETH9_",
          "type": "address"
        }
      ],
      "stateMutability": "nonpayable",
      "type": "constructor"
    },
    {
      "anonymous": false,
      "inputs": [
        {
          "indexed": true,
          "internalType": "uint256",
          "name": "tokenId",
          "type": "uint256"
        }
      ],
      "name": "LogCancel",
      "type": "event"
    },
    {
      "anonymous": false,
      "inputs": [
        {
          "indexed": false,
          "internalType": "uint256",
          "name": "tokenId",
          "type": "uint256"
        },
        {
          "indexed": false,
          "internalType": "address",
          "name": "buyer",
          "type": "address"
        }
      ],
      "name": "LogOptionBuy",
      "type": "event"
    },
    {
      "anonymous": false,
      "inputs": [
        {
          "indexed": true,
          "internalType": "uint256",
          "name": "tokenId",
          "type": "uint256"
        },
        {
          "components": [
            {
              "internalType": "contract IUniswapV3Pool",
              "name": "pool",
              "type": "address"
            },
            {
              "internalType": "enum OptionType",
              "name": "optionType",
              "type": "uint8"
            },
            {
              "internalType": "int24",
              "name": "strike",
              "type": "int24"
            },
            {
              "internalType": "uint256",
              "name": "notional",
              "type": "uint256"
            },
            {
              "internalType": "uint256",
              "name": "maturity",
              "type": "uint256"
            },
            {
              "internalType": "address",
              "name": "maker",
              "type": "address"
            },
            {
              "internalType": "address",
              "name": "resolver",
              "type": "address"
            },
            {
              "internalType": "uint256",
              "name": "price",
              "type": "uint256"
            }
          ],
          "indexed": false,
          "internalType": "struct OptionData",
          "name": "option",
          "type": "tuple"
        },
        {
          "indexed": false,
          "internalType": "address",
          "name": "sender",
          "type": "address"
        }
      ],
      "name": "LogOptionCreation",
      "type": "event"
    },
    {
      "anonymous": false,
      "inputs": [
        {
          "indexed": true,
          "internalType": "uint256",
          "name": "tokenId",
          "type": "uint256"
        },
        {
          "indexed": false,
          "internalType": "uint256",
          "name": "amount0Out",
          "type": "uint256"
        },
        {
          "indexed": false,
          "internalType": "uint256",
          "name": "amount1Out",
          "type": "uint256"
        },
        {
          "indexed": false,
          "internalType": "uint256",
          "name": "feeAmount",
          "type": "uint256"
        }
      ],
      "name": "LogSettle",
      "type": "event"
    },
    {
      "inputs": [],
      "name": "WETH9",
      "outputs": [
        {
          "internalType": "contract IWETH9",
          "name": "",
          "type": "address"
        }
      ],
      "stateMutability": "view",
      "type": "function"
    },
    {
      "inputs": [
        {
          "internalType": "uint256",
          "name": "tokenId_",
          "type": "uint256"
        },
        {
          "components": [
            {
              "internalType": "contract IUniswapV3Pool",
              "name": "pool",
              "type": "address"
            },
            {
              "internalType": "enum OptionType",
              "name": "optionType",
              "type": "uint8"
            },
            {
              "internalType": "int24",
              "name": "strike",
              "type": "int24"
            },
            {
              "internalType": "uint256",
              "name": "notional",
              "type": "uint256"
            },
            {
              "internalType": "uint256",
              "name": "maturity",
              "type": "uint256"
            },
            {
              "internalType": "address",
              "name": "maker",
              "type": "address"
            },
            {
              "internalType": "address",
              "name": "resolver",
              "type": "address"
            },
            {
              "internalType": "uint256",
              "name": "price",
              "type": "uint256"
            }
          ],
          "internalType": "struct OptionData",
          "name": "optionData_",
          "type": "tuple"
        }
      ],
      "name": "buyOption",
      "outputs": [],
      "stateMutability": "payable",
      "type": "function"
    },
    {
      "inputs": [
        {
          "internalType": "bytes32",
          "name": "",
          "type": "bytes32"
        }
      ],
      "name": "buyers",
      "outputs": [
        {
          "internalType": "address",
          "name": "",
          "type": "address"
        }
      ],
      "stateMutability": "view",
      "type": "function"
    },
    {
      "inputs": [
        {
          "internalType": "uint256",
          "name": "tokenId_",
          "type": "uint256"
        },
        {
          "components": [
            {
              "internalType": "contract IUniswapV3Pool",
              "name": "pool",
              "type": "address"
            },
            {
              "internalType": "enum OptionType",
              "name": "optionType",
              "type": "uint8"
            },
            {
              "internalType": "int24",
              "name": "strike",
              "type": "int24"
            },
            {
              "internalType": "uint256",
              "name": "notional",
              "type": "uint256"
            },
            {
              "internalType": "uint256",
              "name": "maturity",
              "type": "uint256"
            },
            {
              "internalType": "address",
              "name": "maker",
              "type": "address"
            },
            {
              "internalType": "address",
              "name": "resolver",
              "type": "address"
            },
            {
              "internalType": "uint256",
              "name": "price",
              "type": "uint256"
            }
          ],
          "internalType": "struct OptionData",
          "name": "optionData_",
          "type": "tuple"
        }
      ],
      "name": "canSettle",
      "outputs": [
        {
          "internalType": "bool",
          "name": "",
          "type": "bool"
        }
      ],
      "stateMutability": "view",
      "type": "function"
    },
    {
      "inputs": [
        {
          "internalType": "uint256",
          "name": "tokenId_",
          "type": "uint256"
        },
        {
          "components": [
            {
              "internalType": "contract IUniswapV3Pool",
              "name": "pool",
              "type": "address"
            },
            {
              "internalType": "enum OptionType",
              "name": "optionType",
              "type": "uint8"
            },
            {
              "internalType": "int24",
              "name": "strike",
              "type": "int24"
            },
            {
              "internalType": "uint256",
              "name": "notional",
              "type": "uint256"
            },
            {
              "internalType": "uint256",
              "name": "maturity",
              "type": "uint256"
            },
            {
              "internalType": "address",
              "name": "maker",
              "type": "address"
            },
            {
              "internalType": "address",
              "name": "resolver",
              "type": "address"
            },
            {
              "internalType": "uint256",
              "name": "price",
              "type": "uint256"
            }
          ],
          "internalType": "struct OptionData",
          "name": "optionData_",
          "type": "tuple"
        }
      ],
      "name": "cancelOption",
      "outputs": [],
      "stateMutability": "nonpayable",
      "type": "function"
    },
    {
      "inputs": [
        {
          "components": [
            {
              "internalType": "contract IUniswapV3Pool",
              "name": "pool",
              "type": "address"
            },
            {
              "internalType": "enum OptionType",
              "name": "optionType",
              "type": "uint8"
            },
            {
              "internalType": "int24",
              "name": "strike",
              "type": "int24"
            },
            {
              "internalType": "uint256",
              "name": "notional",
              "type": "uint256"
            },
            {
              "internalType": "uint256",
              "name": "maturity",
              "type": "uint256"
            },
            {
              "internalType": "address",
              "name": "maker",
              "type": "address"
            },
            {
              "internalType": "address",
              "name": "resolver",
              "type": "address"
            },
            {
              "internalType": "uint256",
              "name": "price",
              "type": "uint256"
            }
          ],
          "internalType": "struct OptionData",
          "name": "optionData_",
          "type": "tuple"
        }
      ],
      "name": "createOption",
      "outputs": [],
      "stateMutability": "payable",
      "type": "function"
    },
    {
      "inputs": [],
      "name": "gelato",
      "outputs": [
        {
          "internalType": "address",
          "name": "",
          "type": "address"
        }
      ],
      "stateMutability": "view",
      "type": "function"
    },
    {
      "inputs": [
        {
          "internalType": "uint256",
          "name": "",
          "type": "uint256"
        }
      ],
      "name": "hashById",
      "outputs": [
        {
          "internalType": "bytes32",
          "name": "",
          "type": "bytes32"
        }
      ],
      "stateMutability": "view",
      "type": "function"
    },
    {
      "inputs": [
        {
          "internalType": "uint256",
          "name": "tokenId_",
          "type": "uint256"
        },
        {
          "components": [
            {
              "internalType": "contract IUniswapV3Pool",
              "name": "pool",
              "type": "address"
            },
            {
              "internalType": "enum OptionType",
              "name": "optionType",
              "type": "uint8"
            },
            {
              "internalType": "int24",
              "name": "strike",
              "type": "int24"
            },
            {
              "internalType": "uint256",
              "name": "notional",
              "type": "uint256"
            },
            {
              "internalType": "uint256",
              "name": "maturity",
              "type": "uint256"
            },
            {
              "internalType": "address",
              "name": "maker",
              "type": "address"
            },
            {
              "internalType": "address",
              "name": "resolver",
              "type": "address"
            },
            {
              "internalType": "uint256",
              "name": "price",
              "type": "uint256"
            }
          ],
          "internalType": "struct OptionData",
          "name": "optionData_",
          "type": "tuple"
        }
      ],
      "name": "settleOption",
      "outputs": [],
      "stateMutability": "nonpayable",
      "type": "function"
    },
    {
      "inputs": [
        {
          "internalType": "uint256",
          "name": "",
          "type": "uint256"
        }
      ],
      "name": "taskById",
      "outputs": [
        {
          "internalType": "bytes32",
          "name": "",
          "type": "bytes32"
        }
      ],
      "stateMutability": "view",
      "type": "function"
    }
  ],
  "transactionHash": "0x7e9186f30c076d4fb1120b1e413845b081f6afd4ff0478818ef2aec90698bd06",
  "args": [
    "0x683913B3A32ada4F8100458A3E1675425BdAa7DF",
    "0xC36442b4a4522E871399CD717aBDD847Ab11FE88",
    "0xc1C6805B857Bef1f412519C4A842522431aFed39",
    "0xB4FBF271143F4FBf7B91A5ded31805e42b2208d6"
  ],
  "solcInputHash": "cb4f14df8ab5b444c18f68905b25325d",
  "bytecode": "0x6101006040523480156200001257600080fd5b5060405162002c7a38038062002c7a833981016040819052620000359162000065565b6001600160601b0319606094851b811660805292841b831660a05290831b821660c05290911b1660e052620000e6565b600080600080608085870312156200007c57600080fd5b84516200008981620000cd565b60208601519094506200009c81620000cd565b6040860151909350620000af81620000cd565b6060860151909250620000c281620000cd565b939692955090935050565b6001600160a01b0381168114620000e357600080fd5b50565b60805160601c60a05160601c60c05160601c60e05160601c612ad8620001a26000396000818160fd01528181610656015281816106f4015281816111b501526112660152600081816107f50152818161087201528181611a830152611fc701526000818161026701528181610a6d01528181610d78015281816113050152818161133201528181611579015281816117e0015281816119d501528181611cf30152611ddc0152600081816101490152610d350152612ad86000f3fe6080604052600436106100915760003560e01c8063bc20ec2211610059578063bc20ec22146101a1578063d0e68188146101c1578063da5e9c43146101ee578063e497f4d614610201578063ee2d9a0b1461023157600080fd5b80631c241d8f146100965780633f392cac146100d65780634aa4a4fc146100eb578063573ea575146101375780637ecbaf801461016b575b600080fd5b3480156100a257600080fd5b506100c36100b136600461241a565b60006020819052908152604090205481565b6040519081526020015b60405180910390f35b6100e96100e436600461259c565b610251565b005b3480156100f757600080fd5b5061011f7f000000000000000000000000000000000000000000000000000000000000000081565b6040516001600160a01b0390911681526020016100cd565b34801561014357600080fd5b5061011f7f000000000000000000000000000000000000000000000000000000000000000081565b34801561017757600080fd5b5061011f61018636600461241a565b6002602052600090815260409020546001600160a01b031681565b3480156101ad57600080fd5b506100e96101bc36600461259c565b6107ea565b3480156101cd57600080fd5b506100c36101dc36600461241a565b60016020526000908152604090205481565b6100e96101fc3660046124a1565b610e26565b34801561020d57600080fd5b5061022161021c36600461259c565b611560565b60405190151581526020016100cd565b34801561023d57600080fd5b506100e961024c36600461259c565b6117ca565b6040516331a9108f60e11b8152600481018390527f00000000000000000000000000000000000000000000000000000000000000006001600160a01b031690636352211e9060240160206040518083038186803b1580156102b157600080fd5b505afa1580156102c5573d6000803e3d6000fd5b505050506040513d601f19601f820116820180604052508101906102e991906123e2565b6001600160a01b0316306001600160a01b03161461034e5760405162461bcd60e51b815260206004820152601d60248201527f4f7074696f6e3a3a6275794f7074696f6e3a206f6e6c79206f776e657200000060448201526064015b60405180910390fd5b6000816040516020016103619190612931565b60408051601f19818403018152918152815160209283012060008681529283905291205490915081146103d65760405162461bcd60e51b815260206004820152601f60248201527f4f7074696f6e3a3a6275794f7074696f6e3a20696e76616c69642068617368006044820152606401610345565b6000818152600260205260409020546001600160a01b03161561044c5760405162461bcd60e51b815260206004820152602860248201527f4f7074696f6e3a3a6275794f7074696f6e3a206f7074696f6e20616c726561646044820152671e48189bdd59da1d60c21b6064820152608401610345565b428260800135116104a95760405162461bcd60e51b815260206004820152602160248201527f4f7074696f6e3a3a6275794f7074696f6e3a206f7074696f6e206578706972656044820152601960fa1b6064820152608401610345565b600081815260026020526040812080546001600160a01b03191633179055806104d8604085016020860161244c565b60018111156104e9576104e9612a65565b14610570576104fb60208401846123c5565b6001600160a01b0316630dfe16816040518163ffffffff1660e01b815260040160206040518083038186803b15801561053357600080fd5b505afa158015610547573d6000803e3d6000fd5b505050506040513d601f19601f8201168201806040525081019061056b91906123e2565b6105ed565b61057d60208401846123c5565b6001600160a01b031663d21220a76040518163ffffffff1660e01b815260040160206040518083038186803b1580156105b557600080fd5b505afa1580156105c9573d6000803e3d6000fd5b505050506040513d601f19601f820116820180604052508101906105ed91906123e2565b9050341561076b578260e0013534146106545760405162461bcd60e51b8152602060048201526024808201527f4f7074696f6e3a6275794f7074696f6e3a3a20496e76616c69642070726963656044820152631034b71760e11b6064820152608401610345565b7f00000000000000000000000000000000000000000000000000000000000000006001600160a01b0316816001600160a01b0316146106f25760405162461bcd60e51b815260206004820152603460248201527f4f7074696f6e3a6275794f7074696f6e3a3a20455448206f7074696f6e20736860448201527337bab632103ab9b2902ba2aa24103a37b5b2b71760611b6064820152608401610345565b7f00000000000000000000000000000000000000000000000000000000000000006001600160a01b031663d0e30db0346040518263ffffffff1660e01b81526004016000604051808303818588803b15801561074d57600080fd5b505af1158015610761573d6000803e3d6000fd5b5050505050610784565b6107846001600160a01b038216333060e0870135611be2565b6107ac61079760c0850160a086016123c5565b6001600160a01b0383169060e0860135611c53565b604080518581523360208201527f024bd09e917361927ee1a208adaa55f99c6c21acca5e56d26ea74f58c4a54aed910160405180910390a150505050565b336001600160a01b037f000000000000000000000000000000000000000000000000000000000000000016146108625760405162461bcd60e51b815260206004820152601f60248201527f4f7074696f6e3a3a6f6e6c79506f6b654d653a206f6e6c7920706f6b654d65006044820152606401610345565b61086c8282611560565b506000807f00000000000000000000000000000000000000000000000000000000000000006001600160a01b031663b810c6366040518163ffffffff1660e01b8152600401604080518083038186803b1580156108c857600080fd5b505afa1580156108dc573d6000803e3d6000fd5b505050506040513d601f19601f82011682018060405250810190610900919061256c565b915091506000836040516020016109179190612931565b60408051601f1981840301815291905280516020909101209050600080610944604087016020880161244c565b600181111561095557610955612a65565b149050600061096760208701876123c5565b6001600160a01b0316633850c7bd6040518163ffffffff1660e01b815260040160e06040518083038186803b15801561099f57600080fd5b505afa1580156109b3573d6000803e3d6000fd5b505050506040513d601f19601f820116820180604052508101906109d791906124be565b505050505091505060008660000160208101906109f491906123c5565b6001600160a01b031663d0c93a7c6040518163ffffffff1660e01b815260040160206040518083038186803b158015610a2c57600080fd5b505afa158015610a40573d6000803e3d6000fd5b505050506040513d601f19601f82011682018060405250810190610a649190612484565b905060008060007f00000000000000000000000000000000000000000000000000000000000000006001600160a01b03166399fbab888c6040518263ffffffff1660e01b8152600401610ab991815260200190565b6101806040518083038186803b158015610ad257600080fd5b505afa158015610ae6573d6000803e3d6000fd5b505050506040513d601f19601f82011682018060405250810190610b0a919061262a565b505050509750505050945094505050826001600160a01b0316886001600160a01b03161480610b4a5750816001600160a01b0316886001600160a01b0316145b610b8f5760405162461bcd60e51b81526020600482015260166024820152753332b2aa37b5b2b7103a37b5b2b71034b73b30b6321760511b6044820152606401610345565b6000806000600260008b815260200190815260200160002060009054906101000a90046001600160a01b031690506000808f815260200190815260200160002060009055600160008f815260200190815260200160002060009055600260008b815260200190815260200160002060006101000a8154906001600160a01b030219169055600089610c4657878e6040016020810190610c2e9190612467565b610c3891906129c4565b60020b8960020b1315610c6e565b878e6040016020810190610c5a9190612467565b610c64919061297d565b60020b8960020b12155b9050610c7a8f86611c88565b90945092506001600160a01b038c81169088161415610ca457610c9d8d85612a0c565b9350610cb1565b610cae8d84612a0c565b92505b8315610cea57610cea81610cd7578e60a0016020810190610cd291906123c5565b610cd9565b825b6001600160a01b0389169086611c53565b8215610d2357610d2381610d10578e60a0016020810190610d0b91906123c5565b610d12565b825b6001600160a01b0388169085611c53565b50610d5a90506001600160a01b038b167f00000000000000000000000000000000000000000000000000000000000000008d611c53565b604051630852cd8d60e31b8152600481018e90526001600160a01b037f000000000000000000000000000000000000000000000000000000000000000016906342966c6890602401600060405180830381600087803b158015610dbc57600080fd5b505af1158015610dd0573d6000803e3d6000fd5b505060408051858152602081018590529081018e90528f92507f36af8a896a6646fe604ae1ba7b9ac002dafa626c6f5edc0668e2400d3a0b8c53915060600160405180910390a250505050505050505050505050565b6000610e3560208301836123c5565b6001600160a01b0316633850c7bd6040518163ffffffff1660e01b815260040160e06040518083038186803b158015610e6d57600080fd5b505afa158015610e81573d6000803e3d6000fd5b505050506040513d601f19601f82011682018060405250810190610ea591906124be565b50505050509150506000806001811115610ec157610ec1612a65565b610ed1604085016020860161244c565b6001811115610ee257610ee2612a65565b1490506000610ef460208501856123c5565b6001600160a01b031663d0c93a7c6040518163ffffffff1660e01b815260040160206040518083038186803b158015610f2c57600080fd5b505afa158015610f40573d6000803e3d6000fd5b505050506040513d601f19601f82011682018060405250810190610f649190612484565b9050600082610f8d5781610f7e6060870160408801612467565b610f8891906129c4565b610f9d565b610f9d6060860160408701612467565b9050600083610fbb57610fb66060870160408801612467565b610fd6565b82610fcc6060880160408901612467565b610fd6919061297d565b90508160020b8560020b1280610ff157508060020b8560020b135b61102f5760405162461bcd60e51b815260206004820152600f60248201526e737472696b6520696e2072616e676560881b6044820152606401610345565b600061103e60208801886123c5565b6001600160a01b0316630dfe16816040518163ffffffff1660e01b815260040160206040518083038186803b15801561107657600080fd5b505afa15801561108a573d6000803e3d6000fd5b505050506040513d601f19601f820116820180604052508101906110ae91906123e2565b905060006110bf60208901896123c5565b6001600160a01b031663d21220a76040518163ffffffff1660e01b815260040160206040518083038186803b1580156110f757600080fd5b505afa15801561110b573d6000803e3d6000fd5b505050506040513d601f19601f8201168201806040525081019061112f91906123e2565b905060008661113e5781611140565b825b905034156112dd57886060013534146111b35760405162461bcd60e51b815260206004820152602f60248201527f52616e67654f726465723a73657452616e67654f726465723a3a20496e76616c60448201526e34b2103737ba34b7b730b61034b71760891b6064820152608401610345565b7f00000000000000000000000000000000000000000000000000000000000000006001600160a01b0316816001600160a01b0316146112645760405162461bcd60e51b815260206004820152604160248201527f52616e67654f726465723a73657452616e67654f726465723a3a20455448207260448201527f616e6765206f726465722073686f756c6420757365205745544820746f6b656e6064820152601760f91b608482015260a401610345565b7f00000000000000000000000000000000000000000000000000000000000000006001600160a01b031663d0e30db0346040518263ffffffff1660e01b81526004016000604051808303818588803b1580156112bf57600080fd5b505af11580156112d3573d6000803e3d6000fd5b50505050506112f6565b6112f66001600160a01b038216333060608d0135611be2565b61132e6001600160a01b0382167f000000000000000000000000000000000000000000000000000000000000000060608c0135611e64565b60007f00000000000000000000000000000000000000000000000000000000000000006001600160a01b03166388316456604051806101600160405280876001600160a01b03168152602001866001600160a01b031681526020018d600001602081019061139c91906123c5565b6001600160a01b031663ddca3f436040518163ffffffff1660e01b815260040160206040518083038186803b1580156113d457600080fd5b505afa1580156113e8573d6000803e3d6000fd5b505050506040513d601f19601f8201168201806040525081019061140c9190612551565b62ffffff1681526020018960020b81526020018860020b81526020018b61143457600061143a565b8d606001355b81526020018b61144e578d60600135611451565b60005b81526020018b611462576000611468565b8d606001355b81526020018b61147c578d6060013561147f565b60005b815230602082015242604091820152516001600160e01b031960e084901b1681526114ad919060040161286d565b608060405180830381600087803b1580156114c757600080fd5b505af11580156114db573d6000803e3d6000fd5b505050506040513d601f19601f820116820180604052508101906114ff91906125ca565b505050905061151a818b8a6115145786611f88565b85611f88565b807f1eb31e1699bfc26db7a1ab44607eb51f577cfe4c5ea2c3db4ab05b7dc873cfaa8b3360405161154c929190612940565b60405180910390a250505050505050505050565b6040516331a9108f60e11b8152600481018390526000907f00000000000000000000000000000000000000000000000000000000000000006001600160a01b031690636352211e9060240160206040518083038186803b1580156115c357600080fd5b505afa1580156115d7573d6000803e3d6000fd5b505050506040513d601f19601f820116820180604052508101906115fb91906123e2565b6001600160a01b0316306001600160a01b03161461165b5760405162461bcd60e51b815260206004820152601d60248201527f4f7074696f6e3a3a63616e536574746c653a206f6e6c79206f776e65720000006044820152606401610345565b60008260405160200161166e9190612931565b60408051601f19818403018152918152815160209283012060008781529283905291205490915081146116e35760405162461bcd60e51b815260206004820152601f60248201527f4f7074696f6e3a3a63616e536574746c653a20696e76616c69642068617368006044820152606401610345565b6000818152600260205260409020546001600160a01b03166117585760405162461bcd60e51b815260206004820152602860248201527f4f7074696f6e3a3a63616e536574746c653a206f7074696f6e206e6f742079656044820152671d08189bdd59da1d60c21b6064820152608401610345565b42836080013511156117be5760405162461bcd60e51b815260206004820152602960248201527f4f7074696f6e3a3a63616e536574746c653a206f7074696f6e206e6f74206d616044820152681d1d5c9959081e595d60ba1b6064820152608401610345565b60019150505b92915050565b6040516331a9108f60e11b8152600481018390527f00000000000000000000000000000000000000000000000000000000000000006001600160a01b031690636352211e9060240160206040518083038186803b15801561182a57600080fd5b505afa15801561183e573d6000803e3d6000fd5b505050506040513d601f19601f8201168201806040525081019061186291906123e2565b6001600160a01b0316336001600160a01b0316146118c25760405162461bcd60e51b815260206004820181905260248201527f4f7074696f6e3a3a63616e63656c4f7074696f6e3a206f6e6c79206f776e65726044820152606401610345565b6000816040516020016118d59190612931565b60408051601f19818403018152918152815160209283012060008681529283905291205490915081146119555760405162461bcd60e51b815260206004820152602260248201527f4f7074696f6e3a3a63616e63656c4f7074696f6e3a20696e76616c69642068616044820152610e6d60f31b6064820152608401610345565b6000818152600260205260409020546001600160a01b0316156119ce5760405162461bcd60e51b815260206004820152602b60248201527f4f7074696f6e3a3a63616e63656c4f7074696f6e3a206f7074696f6e20616c7260448201526a1958591e48189bdd59da1d60aa1b6064820152608401610345565b60008060007f00000000000000000000000000000000000000000000000000000000000000006001600160a01b03166399fbab88876040518263ffffffff1660e01b8152600401611a2191815260200190565b6101806040518083038186803b158015611a3a57600080fd5b505afa158015611a4e573d6000803e3d6000fd5b505050506040513d601f19601f82011682018060405250810190611a72919061262a565b5050505097505050509450945050507f00000000000000000000000000000000000000000000000000000000000000006001600160a01b031663ee8ca3b560016000898152602001908152602001600020546040518263ffffffff1660e01b8152600401611ae291815260200190565b600060405180830381600087803b158015611afc57600080fd5b505af1158015611b10573d6000803e3d6000fd5b505050600087815260208181526040808320839055600182528083208390558783526002909152812080546001600160a01b0319169055905080611b548884611c88565b90925090508115611b8357611b83611b7260c0890160a08a016123c5565b6001600160a01b0387169084611c53565b8015611bad57611bad611b9c60c0890160a08a016123c5565b6001600160a01b0386169083611c53565b60405188907f66cf275a29b4a265a7935f0bd46ad204e66eb78f7393eec37cdb9e70f4e32fd890600090a25050505050505050565b6040516001600160a01b0380851660248301528316604482015260648101829052611c4d9085906323b872dd60e01b906084015b60408051601f198184030181529190526020810180516001600160e01b03166001600160e01b0319909316929092179091526120d4565b50505050565b6040516001600160a01b038316602482015260448101829052611c8390849063a9059cbb60e01b90606401611c16565b505050565b6040805160a0810182528381526001600160801b038381166020830190815260008385018181526060850182815242608087019081529651630624e65f60e11b81529551600487015292519093166024850152915160448401525160648301529151608482015281907f00000000000000000000000000000000000000000000000000000000000000006001600160a01b031690630c49ccbe9060a4016040805180830381600087803b158015611d3e57600080fd5b505af1158015611d52573d6000803e3d6000fd5b505050506040513d601f19601f82011682018060405250810190611d769190612606565b50506040805160808101825285815230602082019081526001600160801b0382840181815260608401828152945163fc6f786560e01b81529351600485015291516001600160a01b039081166024850152915181166044840152925190921660648201527f00000000000000000000000000000000000000000000000000000000000000009091169063fc6f7865906084016040805180830381600087803b158015611e2157600080fd5b505af1158015611e35573d6000803e3d6000fd5b505050506040513d601f19601f82011682018060405250810190611e599190612606565b909590945092505050565b801580611eed5750604051636eb1769f60e11b81523060048201526001600160a01b03838116602483015284169063dd62ed3e9060440160206040518083038186803b158015611eb357600080fd5b505afa158015611ec7573d6000803e3d6000fd5b505050506040513d601f19601f82011682018060405250810190611eeb9190612433565b155b611f585760405162461bcd60e51b815260206004820152603660248201527f5361666545524332303a20617070726f76652066726f6d206e6f6e2d7a65726f60448201527520746f206e6f6e2d7a65726f20616c6c6f77616e636560501b6064820152608401610345565b6040516001600160a01b038316602482015260448101829052611c8390849063095ea7b360e01b90606401611c16565b81604051602001611f999190612931565b60408051601f1981840301815291815281516020928301206000868152928390529120556001600160a01b037f00000000000000000000000000000000000000000000000000000000000000001663b9f45adb30635e10761160e11b61200560e0870160c088016123c5565b604051630ad6ff4160e21b90612021908a908a90602401612968565b60408051601f198184030181529181526020820180516001600160e01b03166001600160e01b03199485161790525160e087901b909216825261206b949392918890600401612807565b602060405180830381600087803b15801561208557600080fd5b505af1158015612099573d6000803e3d6000fd5b505050506040513d601f19601f820116820180604052508101906120bd9190612433565b600093845260016020526040909320929092555050565b6000612129826040518060400160405280602081526020017f5361666545524332303a206c6f772d6c6576656c2063616c6c206661696c6564815250856001600160a01b03166121a69092919063ffffffff16565b805190915015611c83578080602001905181019061214791906123ff565b611c835760405162461bcd60e51b815260206004820152602a60248201527f5361666545524332303a204552433230206f7065726174696f6e20646964206e6044820152691bdd081cdd58d8d9595960b21b6064820152608401610345565b60606121b584846000856121bf565b90505b9392505050565b6060824710156122205760405162461bcd60e51b815260206004820152602660248201527f416464726573733a20696e73756666696369656e742062616c616e636520666f6044820152651c8818d85b1b60d21b6064820152608401610345565b843b61226e5760405162461bcd60e51b815260206004820152601d60248201527f416464726573733a2063616c6c20746f206e6f6e2d636f6e74726163740000006044820152606401610345565b600080866001600160a01b0316858760405161228a91906127eb565b60006040518083038185875af1925050503d80600081146122c7576040519150601f19603f3d011682016040523d82523d6000602084013e6122cc565b606091505b50915091506122dc8282866122e7565b979650505050505050565b606083156122f65750816121b8565b8251156123065782518084602001fd5b8160405162461bcd60e51b8152600401610345919061285a565b803561232b81612a7b565b919050565b805161232b81612a7b565b8051801515811461232b57600080fd5b80356002811061232b57600080fd5b803561232b81612a93565b805161232b81612a93565b6000610100828403121561238357600080fd5b50919050565b80516001600160801b038116811461232b57600080fd5b805161ffff8116811461232b57600080fd5b805162ffffff8116811461232b57600080fd5b6000602082840312156123d757600080fd5b81356121b881612a7b565b6000602082840312156123f457600080fd5b81516121b881612a7b565b60006020828403121561241157600080fd5b6121b88261233b565b60006020828403121561242c57600080fd5b5035919050565b60006020828403121561244557600080fd5b5051919050565b60006020828403121561245e57600080fd5b6121b88261234b565b60006020828403121561247957600080fd5b81356121b881612a93565b60006020828403121561249657600080fd5b81516121b881612a93565b600061010082840312156124b457600080fd5b6121b88383612370565b600080600080600080600060e0888a0312156124d957600080fd5b87516124e481612a7b565b60208901519097506124f581612a93565b9550612503604089016123a0565b9450612511606089016123a0565b935061251f608089016123a0565b925060a088015160ff8116811461253557600080fd5b915061254360c0890161233b565b905092959891949750929550565b60006020828403121561256357600080fd5b6121b8826123b2565b6000806040838503121561257f57600080fd5b82519150602083015161259181612a7b565b809150509250929050565b60008061012083850312156125b057600080fd5b823591506125c18460208501612370565b90509250929050565b600080600080608085870312156125e057600080fd5b845193506125f060208601612389565b6040860151606090960151949790965092505050565b6000806040838503121561261957600080fd5b505080516020909101519092909150565b6000806000806000806000806000806000806101808d8f03121561264d57600080fd5b8c516bffffffffffffffffffffffff8116811461266957600080fd5b9b5061267760208e01612330565b9a5061268560408e01612330565b995061269360608e01612330565b98506126a160808e016123b2565b97506126af60a08e01612365565b96506126bd60c08e01612365565b95506126cb60e08e01612389565b94506101008d015193506101208d015192506126ea6101408e01612389565b91506126f96101608e01612389565b90509295989b509295989b509295989b565b60008151808452612723816020860160208601612a23565b601f01601f19169290920160200192915050565b803561274281612a7b565b6001600160a01b031682526127596020820161234b565b6002811061277757634e487b7160e01b600052602160045260246000fd5b60208301526127886040820161235a565b612797604084018260020b9052565b5060608101356060830152608081013560808301526127b860a08201612320565b6001600160a01b031660a08301526127d260c08201612320565b6001600160a01b031660c083015260e090810135910152565b600082516127fd818460208701612a23565b9190910192915050565b6001600160a01b0386811682526001600160e01b031986166020830152848116604083015260a060608301819052600091906128459084018661270b565b91508084166080840152509695505050505050565b6020815260006121b8602083018461270b565b81516001600160a01b031681526101608101602083015161289960208401826001600160a01b03169052565b5060408301516128b0604084018262ffffff169052565b5060608301516128c5606084018260020b9052565b5060808301516128da608084018260020b9052565b5060a083015160a083015260c083015160c083015260e083015160e083015261010080840151818401525061012080840151612920828501826001600160a01b03169052565b505061014092830151919092015290565b61010081016117c48284612737565b610120810161294f8285612737565b6001600160a01b03929092166101009190910152919050565b82815261012081016121b86020830184612737565b60008160020b8360020b6000821282627fffff038213811516156129a3576129a3612a4f565b82627fffff190382128116156129bb576129bb612a4f565b50019392505050565b60008160020b8360020b6000811281627fffff19018312811516156129eb576129eb612a4f565b81627fffff018313811615612a0257612a02612a4f565b5090039392505050565b600082821015612a1e57612a1e612a4f565b500390565b60005b83811015612a3e578181015183820152602001612a26565b83811115611c4d5750506000910152565b634e487b7160e01b600052601160045260246000fd5b634e487b7160e01b600052602160045260246000fd5b6001600160a01b0381168114612a9057600080fd5b50565b8060020b8114612a9057600080fdfea264697066735822122004381861defba96afd4471a0ead02cc65bc729fc9b87da5e7d72bb18009a3c2464736f6c63430008070033",
  "devdoc": {
    "kind": "dev",
    "methods": {},
    "version": 1
  },
  "userdoc": {
    "kind": "user",
    "methods": {},
    "version": 1
  },
  "storageLayout": {
    "storage": [
      {
        "astId": 1864,
        "contract": "contracts/Option.sol:Option",
        "label": "hashById",
        "offset": 0,
        "slot": "0",
        "type": "t_mapping(t_uint256,t_bytes32)"
      },
      {
        "astId": 1868,
        "contract": "contracts/Option.sol:Option",
        "label": "taskById",
        "offset": 0,
        "slot": "1",
        "type": "t_mapping(t_uint256,t_bytes32)"
      },
      {
        "astId": 1872,
        "contract": "contracts/Option.sol:Option",
        "label": "buyers",
        "offset": 0,
        "slot": "2",
        "type": "t_mapping(t_bytes32,t_address)"
      }
    ],
    "types": {
      "t_address": {
        "encoding": "inplace",
        "label": "address",
        "numberOfBytes": "20"
      },
      "t_bytes32": {
        "encoding": "inplace",
        "label": "bytes32",
        "numberOfBytes": "32"
      },
      "t_mapping(t_bytes32,t_address)": {
        "encoding": "mapping",
        "key": "t_bytes32",
        "label": "mapping(bytes32 => address)",
        "numberOfBytes": "32",
        "value": "t_address"
      },
      "t_mapping(t_uint256,t_bytes32)": {
        "encoding": "mapping",
        "key": "t_uint256",
        "label": "mapping(uint256 => bytes32)",
        "numberOfBytes": "32",
        "value": "t_bytes32"
      },
      "t_uint256": {
        "encoding": "inplace",
        "label": "uint256",
        "numberOfBytes": "32"
      }
    }
  }
}